:020000041000EA
:1000000000B50C4B00219960042159610A4919601F
:100010000A490B480160002159600121996001BC27
:10002000002800D0004707480749086003C880F34C
:10003000088808470000001800031F00180200038A
:10004000F40000180001001008ED00E000000000BE
:1000500000000000000000000000000000000000A0
:100060000000000000000000000000000000000090
:100070000000000000000000000000000000000080
:100080000000000000000000000000000000000070
:100090000000000000000000000000000000000060
:1000A0000000000000000000000000000000000050
:1000B0000000000000000000000000000000000040
:1000C0000000000000000000000000000000000030
:1000D0000000000000000000000000000000000020
:1000E0000000000000000000000000000000000010
:1000F0000000000000000000000000002CEC210DBA
:1001000000200420F7010010CB010010CD010010E9
:10011000C9010010C9010010C9010010C901001077
:10012000C9010010C9010010C9010010CF01001061
:10013000C9010010C9010010D1010010D301001045
:10014000C1010010C1010010C1010010C101001067
:10015000C1010010C1010010C1010010C101001057
:10016000C1010010C1010010C1010010C101001047
:10017000C1010010C1010010C1010010C101001037
:10018000C1010010C1010010C1010010C101001027
:10019000C1010010C1010010C1010010C101001017
:1001A000C1010010C1010010C1010010C101001007
:1001B000C1010010C1010010C1010010C1010010F7
:1001C000EFF30580103800BE00BE00BE00BE00BECA
:1001D00000BE00BEF2EB8871445A0110705A011043
:1001E0003802001090A31AE71E481F49086006C88D
:1001F00081F3088810471D480068002801D019487D
:10020000F3E70DA40ECC002902D000F012F8F9E7B4
:100210001749184A002000E001C19142FCD116495B
:100220008847164988471649884700BEFDE701C937
:1002300001C29A42FBD37047705A0110C0000020DF
:10024000F41F0020A4790110000004200000042005
:10025000A479011000100420001004200000000008
:10026000704700000000000008ED00E0000000D032
:10027000F41F0020BCF60320555E00107D03001023
:100280004D5E0010F8B5C046044B10B5002B03D0EE
:100290000349044800E000BF10BDC0460000000054
:1002A00014EF02200C2D01107047000010B5024819
:1002B00005F01DFFFEE7C046102D011010B50248E5
:1002C00005F015FFFEE7C046262D011010B508F019
:1002D00095FB08F017FD08F0C9FD08F0F9FE10BD08
:1002E00070B51E4D28000BF01DF81D4C00280ED0D7
:1002F00000231C4A2800A3541B4A2370A3501B4A06
:100300006370A3541A4A6360A3500BF027F80120CE
:1003100000F009FD174E3060012000F004FD164D7D
:10032000320021007060280008F022FB08F060FB1A
:1003300032002800210008F0EDFB08F013FC320029
:100340002800210008F066FD08F08CFD320028002E
:10035000210008F085FE08F0ABFE70BD38230020B8
:10036000B0F90120284E00002C4E0000509C0000E7
:10037000549C000070E4022054E4022010B505F003
:10038000A3FEFFF7A3FFFFF7ABFF01F0CDFDFEE7F4
:100390000BA10CC9126892009B581868203080F39A
:1003A0000988022080F31488BFF36F8F3FBCAE46EC
:1003B00008BC04BC62B61847C046C046C046C0462A
:1003C000000000D044EF0220000000000000000008
:1003D000EFF309811AA00CC8106880001B18186878
:1003E00020390160F0C144464D4656465F46F0C193
:1003F000146E556E566F176F3039F0C1106808B51E
:1004000072B601F083F962B60CBC1168086810304E
:10041000F0C8A046A946B246BB4680F309880D2223
:1004200012073038F0C81466556656671767F0C86B
:100430001847C046C046C046C046C046C046C04633
:10044000000000D044EF022010B502F009FA0000CD
:1004500010B501F05FFC040000F0BCFF002803D0E1
:100460008022034B52051A60200001F0B5FF10BD39
:1004700004ED00E070470000D02301221B06196D37
:10048000114206D1FF221A658022034B52051A60E1
:100490007047996DF3E7C04604ED00E010B5802485
:1004A000031F64041C60043B19600349043B19608A
:1004B000143B40381A6010BD490400108022044BE0
:1004C00052051A60BFF34F8FBFF36F8F7047C0465E
:1004D00004ED00E0EFF3108072B6704780F31088EF
:1004E0007047D02300221B065A657047002310B5C1
:1004F000084A094C05202360136002F08DF9FA21A7
:10050000890003F02FFD054B013818600723236095
:1005100010BDC04618E000E010E000E014E000E08C
:1005200070B51F4B1F4C1A78D0231B061B689A42CC
:100530000AD1FFF7DBFFFF2322681B0613430F20BE
:100540001949236003F0C6F9FF2322681B041343F3
:10055000236016490E2003F0BDF9D0240B20144966
:1005600003F0B8F9FF2324062365FE3B226D1A42EF
:1005700014D12568FF210F35280002F06FFC2800F8
:100580000C4902F0CBFA0121280002F089FAFFF7AA
:10059000FFFE206801F0BAF802F062F9A26DE5E70B
:1005A0006C19002020ED00E051040010D103001070
:1005B000750400107904001010B572B6FFF7B0FF93
:1005C00010B50E2002F0D6F90F2002F0D3F9002268
:1005D000044B1A7003F0BCF9034803F02FFAFFF73D
:1005E0009FFFC0466C190020B905001010B50A4BDA
:1005F0001B78FF2B0CD0EFF30580002802D101F00F
:1006000021F810BDD0231B061B684000C018F8E776
:10061000D0231B061868F4E76C19002013B50300FB
:100620000268124804780020FF2C06D1BFF35F8FC8
:10063000106081F3108820BF13BDBFF35F8F10607F
:1006400081F310880A4A1B6810680A4A9B1899109F
:100650005C2B00D91839012213008B4019000123AB
:100660005B420093002300F0C5F8E5E76C19002019
:1006700060F4022000FFFF2F13B50B000268194938
:10068000521894105C2A00D9183C174A1278FF2A95
:100690001FD00121A14040BF0068BFF35F8F00223F
:1006A000026083F31088EFF305831048DBB2006823
:1006B000934202D100F0EFF813BD019201AA00F0BD
:1006C00023F9019B002BF7D08022094B52051A60B9
:1006D000F2E740BF0268BFF35F8F0021116083F330
:1006E0001088E9E700FFFF2F6C19002060F402205A
:1006F00004ED00E0F0B51F002F4B04001B780D0047
:10070000160085B0FF2B0CD10368BFF35F8F00226A
:100710001A6081F310883000390002F025FF05B01F
:10072000F0BD02F0B9FF32003B00121A8B411900F4
:1007300001231000214A5B4280185941236803932A
:10074000002904DC30D1FA239B0098422CD3FA22F2
:100750000023920003F02CFC031E25D0BFF35F8F13
:10076000002203990A6085F31088154A154910681C
:100770002268521891105C2A00D9183901221400FD
:100780008C4000932100002300F034F80E494B6A9E
:100790009F4205D8896A0120B142C0D29F42BED192
:1007A000FFF78CFE0020BAE7BFF35F8F0023039AA8
:1007B000136085F31088E9E76C19002018FCFFFF2F
:1007C00060F4022000FFFF2F0040054010B500F04C
:1007D00005F8014B186010BD60F4022010B51C2014
:1007E00003F03CF9041E03D0002308C000F098F881
:1007F000200010BDF7B50D0006001F00019200F0AB
:10080000ABFD2B0034682340002F14D1002B14D1F2
:10081000089B002B17D001994B1E99410906002F08
:1008200002D08023DB041943089A2943301D01F0CC
:10083000D2F8002409E0AB42EAD1019B002B02D0A0
:100840002300AB4333600023089301F08BFC089B2B
:10085000002B15D0002801D101F012FA01F0DCFDC7
:10086000040083010AD401F025FA346823002B40E8
:10087000002F07D1002B07D101F06EFA2402240AC1
:100880002000FEBD9D42F7D1019B002BF4D0230038
:10089000AB433360F0E70300F7B504000D000C3301
:1008A000019300F059FD216820692943002521604A
:1008B000019A2368904206D1AB431D00236001F0EA
:1008C00051FC2800FEBD1E00016847680A02120A9A
:1008D0001640B4468026F604314204D16646002E06
:1008E00003D13800E4E76245FBD18026760431422B
:1008F00000D0154380218904194301F0F5FCF0E78D
:1009000010B5FFF7C8FF10BD10B5044C13000A0066
:100910000100200001F0FCFE10BDC04601090010DE
:100920000300083301224360C36003610023524285
:1009300082600360704700230361704743689A68D0
:100940004B608A60516099600368086101330360FD
:100950007047020030B50C680832631C0AD1036985
:100960005A684A6091608B6059600368086101337E
:10097000036030BD130052681568A542FAD9EFE74D
:100980000369416882688A6051605968814200D178
:100990005A6000220261186801381860704713B568
:1009A000040001F087F9A46B01F0D6F960426041C0
:1009B00016BD70B51600026C0400856B002A09D1C3
:1009C0000668002E12D1806801F0A4F8A6600135F7
:1009D000A56370BD002E0ED1406804F013FA636861
:1009E000226C9B18A2686360934201D20020EEE75C
:1009F00023686360FAE7C06804F004FA226CE368D5
:100A000051429B1A2268E360934202D2A3685B18AA
:100A1000E3600020022EDAD12B005A1E9341ED1A1A
:100A2000D5E703001A6C080010B5002A09D0D96870
:100A30009C688918D960A14201D31968D96004F073
:100A4000E1F910BDF7B5856C0026AA6BEB6B019040
:100A50009A4214D22F0032002800453701A93C7871
:100A6000FFF7A7FF64B20600631C0AD16B6A002B74
:100A700005D02800243000F075FD002809D1300091
:100A8000FEBD00F0A1FC8442F9D2013464B23C7096
:100A9000F5E70126F3E770B504002600453601F0BE
:100AA00009F935786DB2002D0EDDA36C002B08D04E
:100AB0002000FFF7C7FF002801D000F0B9FD013D7D
:100AC000F0E7636A002B13D1FF233370260044360E
:100AD00001F042F901F0EEF835786DB2002D02DD3B
:100AE0002369002B09D1FF23337001F035F970BD64
:100AF0002000243000F036FDDDE72000103000F04B
:100B000031FD002801D000F093FD013DE5E7F8B587
:100B1000002604000D00B04219D0C16B3000B14274
:100B200015D0226C0B0C100C84460700B3420FD179
:100B3000B74211D06346081C89B292B24A4380B2D0
:100B40009BB24343120C9B181B0C05D00020F8BD30
:100B5000002FFBD1101CEFE701F0ACF8216CE36B28
:100B600022684B43D0185B1A6260D2182300E260FF
:100B7000FF224433A060A6631A705A70002D0ED174
:100B80002369002B07D02000103000F0EBFC002878
:100B900001D001F075F801F0DFF80120D7E720005F
:100BA0001030FFF7BDFE20002430FFF7B9FEF2E75A
:100BB000F8B506000D001700002802D1002420001F
:100BC000F8BD030C080C002B28D100280BD0031C07
:100BD000311CB0B2AAB2424389B29BB24B43120C51
:100BE0009B181B0CEAD12800704303005533E5D84D
:100BF000543002F033FF041EE0D00300002D00D07B
:100C00005433236001212000E6632564FFF77FFF52
:100C1000230050331F700023A364D0E70028CDD1F8
:100C2000291CD6E7F0B504001D000027012685B079
:100C30000091019201F03EF8A26BE36B9A4210D250
:100C40002A0020000099A76BFFF7B3FEA36C002BCE
:100C500010D1636A002B14D02000243000F082FCF5
:100C60000FE0022DECD0019B002B13D101F074F8A2
:100C700000200DE0022D01D1002F06D12000FFF74A
:100C8000E1FE002801D000F0FBFF01F065F8012033
:100C900005B0F0BD002F02D102A800F0BDFC01F0AC
:100CA0005BF800F059FB01F005F82200443213789C
:100CB0005BB2013301D10023137022004532137857
:100CC0005BB2013301D10023137001F045F801A993
:100CD00002A801F04BFB00281FD100F0EBFFA26B34
:100CE000E36B9A4210D101F037F8200001991030DF
:100CF00000F062FE2000FFF7CEFE01F033FA00287C
:100D000009D100F0BDFF06E001F026F82000FFF752
:100D1000C2FE01F027FA37008CE72000FFF7BBFE88
:100D200001F020FAA4E7020010B500210120FFF72E
:100D30003FFF041E07D000210B000A008160016004
:100D4000C160FFF76FFF200010BDF0B5040085B053
:100D500016001F00039100F0DDFFA26BE36B019012
:100D60009A4202D30025022F1FD12300453300935E
:100D70001D78A36B6DB23A00200003990293FFF730
:100D800018FE6B1C1FD1A36C002B14D0022F02D1B4
:100D9000029B002B08D12000FFF754FE002803D04F
:100DA000002E01D0012333600125019801F014FBCE
:100DB000280005B0F0BD636A002BF5D02000243078
:100DC00000F0D0FBEAE700F0FFFA8542ECD2009B8E
:100DD00001356DB21D70E7E7F0B50400002701266C
:100DE00085B00091019200F065FFA56B002D15D034
:100DF00020000099FFF715FE2369013DA563002B34
:100E000007D02000103000F0ADFB002801D000F02A
:100E100037FF00F0A1FF012005B0F0BD019B002BC2
:100E200003D100F099FF0020F6E7002F02D102A8BD
:100E300000F0F2FB00F090FF00F08EFA00F03AFFB5
:100E40002200443213785BB2013301D100231370C6
:100E50002200453213785BB2013301D100231370B5
:100E600000F07AFF01A902A801F080FA00281AD147
:100E70002000FFF794FD00280FD0200001992430B6
:100E800000F09AFD2000FFF706FE01F06BF9002844
:100E900001D100F0F5FE3700A5E72000FFF7FBFDCC
:100EA00001F060F9F7E72000FFF7F5FD01F05AF9CE
:100EB0002000FFF774FD0028EDD0B4E7F0B5002561
:100EC00004002F00012685B0019100F0F3FEA36B12
:100ED000002B17D0013BA3632368002B02D101F044
:100EE000A9FAA0602369002B07D02000103000F081
:100EF00039FB002801D000F0C3FE00F02DFF0120D7
:100F000005B0F0BD019B002B03D100F025FF0020B0
:100F1000F6E7002F02D102A800F07EFB00F01CFFD4
:100F200000F01AFA00F0C6FE2200443213785BB2D9
:100F3000013301D1002313702200453213785BB2D4
:100F4000013301D10023137000F006FF01A902A8AC
:100F500001F00CFA002825D12000FFF720FD002821
:100F60001AD02368002B07D100F0A4FEA06800F07F
:100F70007DFD050000F0F0FE20000199243000F016
:100F80001BFD2000FFF787FD01F0ECF8002801D1E0
:100F900000F076FE370098E72000FFF77CFD01F0B7
:100FA000E1F8F7E72000FFF776FD01F0DBF820001D
:100FB000FFF7F5FC0028EDD0002DA8D000F07AFE58
:100FC000616A002903D02021236B1B68C91AA0681D
:100FD00000F0F8FD99E7000070B5002917D0002354
:100FE0000B4C1A0025006668864204D1D200AB186B
:100FF000196058600BE0002B03D12668002E00D149
:10100000230001320834082AEDD1002BF0D170BD45
:10101000A0F4022070B5040016000D0000F04AFE96
:101020002200443213785BB2013301D100231370E4
:101030002200453213785BB2013301D100231370D3
:1010400000F08AFEA36B002B05D12000320029009E
:10105000243000F0E6FC2000FFF71DFD70BD00000D
:1010600010B5FFF72BFA024B1B68022BF9D8FEE7ED
:1010700060EF0220F0B53F4A036B1268050085B0AF
:10108000934259D3D022013B1206126801930023E8
:1010900001271C00039200937F42374AA30099580E
:1010A00098589E58B66B002E2CDB9A58926B012AEA
:1010B00028DC324A9B58002B24D1C26B01331A40E2
:1010C0000B6B9B1AAA6B002A02DBAA6B012A08DDB4
:1010D000019A934205DC6A68E240D20701D52700F5
:1010E0000193002B0EDB2A6B9A420BDDD0231B06EB
:1010F0001B68A6009C4221D10122204B9A51009BE3
:1011000001330093631C0124022BC6D1009B1A4CAF
:10111000002B0AD17B1C08D0D0231B061B68BD0006
:101120009F421AD10122154B5A51039B9B00E25852
:10113000D26BD20700D4E35805B0F0BD0E4B02933A
:101140009B599B6B0233DAD02000FFF7CAF90222C9
:10115000029B52429B599A63D1E763599B6B0233BE
:10116000E3D03800FFF7BDF90222635952429A6377
:10117000DBE7C0460CF4022044EF022020F50220F9
:10118000064A13681968064B002903D1012252420E
:101190001A6070471268D2681268F9E750EF0220AF
:1011A00078F4022010B5002B19D01468144B4000BD
:1011B000002C0ED11C18645C002C05D0114A535C25
:1011C0000133DBB2535410BD1468002CFCD0BFF3C4
:1011D0005F8F01240B4A1B1854545C54F3E7094CED
:1011E000635C013BDBB26354635CDCB2002BEAD18D
:1011F000034B40001B185C54BFF35F8F1460E2E7A1
:10120000A1F60320A5F60320F8B5D0231B061C6821
:101210001A4BA200D758BB6B023300D0F8BD184E52
:10122000A3009D59002D06D0002120009951154A98
:101230000B00FFF7B7FF002301212000124AFFF740
:10124000B1FF62B672B6D0231B061C6801232000D2
:1012500019000D4AFFF7A6FF012300212000094ACB
:10126000FFF7A0FFA300F550002DD4D12B002900DB
:101270002000044AFFF796FFCDE7C04644EF022066
:10128000F4F30220380100D03C0100D0F7B59600FD
:10129000070030000091019302F0E0FB051E02D12F
:1012A00000242000FEBD7C2002F0D8FB041E4BD0A1
:1012B0007C22002103F0A0FD320028006563A521F7
:1012C00003F09AFD0723656B043EAD199D43009B17
:1012D000002B0ED0210000234031009AD25CCA546A
:1012E000002A02D00133102BF7D1230000224F3304
:1012F0001A70089E1F2E00D91F2620002663083072
:10130000A665FFF718FB20001C30FFF714FB202315
:101310009B1BE36139002800019A6461A462FFF716
:10132000BDF801235B42A363094B20609F4202D0BA
:10133000084B9F4203D10123E26B1343E363099BF4
:10134000002BAED01C60ACE7280002F00BFCA7E736
:10135000191E001061100010144B70B51B68002B93
:1013600022D0EFF3108672B6D02501232D06190086
:101370000F4A2868FFF716FF0E4C2368002B01D197
:10138000FFF742FF2D680123280000210A4AFFF7DA
:1013900009FF23682800013323600023064A19004F
:1013A000FFF700FF86F3108870BDC046E0F402200E
:1013B0003C0100D004F40220380100D0014B186831
:1013C0007047C04614F50220014B18687047C046AC
:1013D000FCF30220584BF7B51B68002B00D0A2E0AD
:1013E000564B1C6801341C60002C0BD1544A554BE1
:1013F000116818681060544A19601368013313604B
:10140000FFF7BEFE514D2B689C4207D34C4B1A6828
:101410001268002A38D101235B422B604C4E4D4AA2
:1014200033684D4F196B14234B439B58012B01D943
:1014300001233B607368196B14234B43D358012B72
:1014400001D901237B60454B1B68002B01D1FEF7BE
:101450002BFFD0231B061B68019300231C00009365
:10146000A5007B59002B09D0019BA34258D0D02363
:101470001B061B68A34247D101237B51631C012437
:10148000022BEDD10098FEBD1B68DB68D86883682D
:101490009C42C2D306008369C168026908368A602B
:1014A00051605968B14200D15A60002282611A68C5
:1014B000013A1A60C36A002B0ED0016A426A5F6863
:1014C0008A60516001001C318F4200D15A600022B5
:1014D000C2621A68013A1A60214A036B11688B4292
:1014E00000D9136014214B431A4AD11849688F68F8
:1014F000C16007617E608E60D118816199580131A9
:101500009950FFF7B7FD81E773599B6B0233B5D054
:101510002000FEF7E6FF0222735952429A63ADE7BC
:1015200001230093AAE70D4A136801331360FEF705
:10153000BBFE00230093A5E704F4022014F502206B
:1015400050EF022058EF02207CF4022078F40220B1
:1015500044EF022060EF022020F5022088F40220F0
:101560000CF40220C36870B5D868016A426AC36A85
:101570008A60516001005C681C318C4200D15A6065
:101580000022C2621A68013A1A601E4B1B68002BC7
:101590002CD104008369C168026908348A605160F3
:1015A0005968A14200D15A601A68016B013A1A6069
:1015B000154B1A68914200D9196014234B43134A02
:1015C000D51869688E68C160066174608C6099582E
:1015D000856101319950FFF74DFDD0231B061A6834
:1015E0000B4B9200D058431E984170BD094B5A686E
:1015F000946802624462616091601A68C362013259
:101600001A60E8E704F402200CF4022060EF0220E4
:1016100020F502208CF40220034B1B680360034B6F
:101620001B6843607047C0467CF4022014F502201A
:10163000D02301211B061A68014B9200D15070473C
:1016400020F50220EFF3108172B6D0231B061A6832
:10165000024B9200D05881F31088704744EF02206B
:10166000254BF7B51D68254B04001B680E00019340
:10167000234B1F68FFF7E6FF002379300370FFF765
:10168000E1FF0830FFF77CF9631C1AD1002E18D057
:101690001C4C6568FFF7D6FFC560FFF7D3FFAB684A
:1016A0000361FFF7CFFFAB6808305860FFF7CAFF50
:1016B0000830A860FFF7C6FF236884610133236008
:1016C000F7BDFFF7BFFF2C198460A54207D9FFF7CC
:1016D000B9FF010038000831FFF73BF9F0E7FFF7E9
:1016E000B1FF010001980831FFF733F9064B1A6882
:1016F000A242E5D91C60E3E714F5022050EF022076
:1017000058EF0220ECF4022078F402200123F0B517
:10171000190087B0A04A0090FFF744FD0123002183
:101720009E4A0098FFF73EFD9D4B00991A688C0079
:101730009C4B002A0FD001221A5100230098190057
:10174000964AFFF72FFD00230121934A0098FFF7E7
:1017500029FD07B0F0BD1A51FFF774FF456BFFF785
:1017600071FF0668FFF76EFF436B10339E420CD982
:101770008D4A2B68934208D16A689A4205D1AB68BA
:10178000934202D1EA689A4208D0FFF75BFF050056
:10179000FFF758FF29004031FEF788FD1427834BDF
:1017A000834D1E682A592B5982491B6B92697B43D2
:1017B0005B1801919A420CD128590830FFF7E0F8E4
:1017C0002B592959186B019B78430831C018FFF732
:1017D000B5F801231A0000998A40029200221700EE
:1017E000724901920A68B24200D90026142070435F
:1017F000704A8458002C00D191E0030008339B18F4
:101800009C466A4B12180393694BD2680493009B61
:101810009B000593944502D100231C001AE0039815
:10182000D3680068864203D20125D86B284274D061
:10183000986B451C65D15D68029C25426DD0009C6B
:101840005B4AA400A558A8630098A7589863A350C2
:1018500000230124002E69D0013E002CC2D0019B40
:10186000002B6CD1002F63D01423396B514A4B43AA
:101870009B18BA699A425BD10120FA6B7B680240DF
:101880008A1A01921A00009CE240024204D0484A9F
:10189000A000825852689343032201201340023A69
:1018A00019001700424D40420C00D4403C421AD06F
:1018B0009400635966591B6BF66B3E409E1B3B00C0
:1018C00093409943019B9E420DDA2B599B6B002B51
:1018D00009DB2B599B6B012B05DC324BE458002CA8
:1018E00001D110000196002A48D1002820DBD02326
:1018F0001B061B688400984242D12A4B01321A51C0
:1019000016E00498059C2058834206D15868029C32
:10191000204202D0009A9A639AE752687AE7002B35
:1019200098D00A680193013A0A6093E7012C96D097
:10193000D0231B061A681E4B9200D358FDE60024E4
:1019400001221B4EA500AB59DB6B134206D0D023FE
:101950001B061B68A34205D1124BEA50012C81D013
:10196000019CEDE7AB599B6B0233F7D02000FEF7EB
:10197000B8FD0222AB5952429A63EFE7002293E787
:101980000B4D2B599B6B0233D2D0FEF7AAFD0222DE
:101990002B5952429A63CBE73C0100D0380100D06A
:1019A00004F4022020F50220A5A5A5A50CF4022030
:1019B00044EF022060EF022070B505000C00FFF735
:1019C00041FE010028001C31FEF7C3FF0121200069
:1019D000FFF746FE70BD70B5160004000D00FFF75E
:1019E00031FE802109062943C1616568FFF72AFE9F
:1019F0000562FFF727FEAB684362FFF723FEAB6883
:101A00001C305860FFF71EFE1C30A860FFF71AFE5E
:101A10002368C4620133300001212360FFF720FEF8
:101A200070BDF8B50D00160047680400FFF70AFE08
:101A30000762FFF707FEBB684362FFF703FEBB6860
:101A40001C305860FFF7FEFD1C30B860FFF7FAFD50
:101A50002368C46201332360002E01D001256D424A
:101A600031002800FFF7FCFDF8BD000070B5040050
:101A7000002084423BD0256BFFF7E4FD036B9D42C1
:101A80003BD2E369002B05DBFFF7DCFD2023026B73
:101A90009B1AE3611422236B1C4D5343A2695B190B
:101AA0009A4225D1260008363000FEF769FFFFF77D
:101AB000C9FD174B026B196822638A4200D91A606C
:101AC00014235343E9184A689068E2602061466035
:101AD0009660EA58A1610132EA50A36B002B02DB49
:101AE000A36B012B02DD2000FFF7C4FA012070BDBB
:101AF000FFF7A8FD036B2363F8E7A46DFFF7A2FDD2
:101B0000006B844280414042F1E7C04660EF022012
:101B10000CF4022070B5041E01D1002070BDC36D0D
:101B2000016B826D013BC3659142F6D0002BF4D16D
:101B3000050008352800FEF723FF2023A26D9B1A1D
:101B4000E3611C4B226319688A4200D91A6014238E
:101B500053431949C81842689668E2602661756067
:101B600095605A58A06101325A50A36B002B02DBDA
:101B7000A36B012B01DD0120D0E7D0231B06A26B54
:101B80001B689A4205D10121A26B0C4B9200D150E7
:101B9000F1E7A36B0A4D9B005B599B6B0233EAD0C4
:101BA000A06BFEF79EFC0222A36B52429B005B5986
:101BB0009A63E0E70CF4022060EF022020F5022097
:101BC00044EF022070B5041E40D0836D8B4200D2DA
:101BD0000B00216B994239D0E26D012A36D1E269BE
:101BE0002363002A02DB2022D31AE36114234B4330
:101BF0001F4DA2695B199A4228D126000836300091
:101C0000FEF7BEFE1B4B226B19688A4200D91A6090
:101C100014235343E9184A689068E26020614660E3
:101C20009660EA58A1610132EA50A36B002B0DDBEC
:101C3000A36B012B0ADCD0231B06A26B1B689A4204
:101C400005D10121A26B0C4B9200D15070BDA36B4A
:101C50000A4D9B005B599B6B0233F7D0A06BFEF7DC
:101C600040FC0222A36B52429B005B599A63EDE752
:101C700060EF02200CF4022020F5022044EF022045
:101C800010B5EFF3108472B6D0231B061B68074A09
:101C90009B009A58002A04D1FEF710FC84F31088A8
:101CA00010BD0121024A9950F8E7C046F4F3022022
:101CB00020F50220F8B572B6114B1B68002B1ED020
:101CC000D0231B061E680F4DB4006759002F0BD19F
:101CD0000123300019000C4AFFF764FA0123390090
:101CE00030000A4AFFF75EFA2B5901332B51012BC2
:101CF00005D1074B1B68002B01D1FFF785FAF8BD12
:101D0000E0F40220F4F302203C0100D0380100D0BE
:101D100004F40220F8B500240C4B1B68A34212D037
:101D2000D0231B061F68FEF7D5FB094EBD00A9593D
:101D30000400002904D101233800064AFFF732FAD3
:101D40007359013373512000F8BDC046E0F40220FE
:101D5000F4F30220380100D0124B70B51B68002B41
:101D60001ED0D0231B061D680F4AAB009C58002CC8
:101D700016D0013C9C50002C12D10C4A21009E58D8
:101D8000280023000A4AFFF70DFA2300012128004A
:101D9000084AFFF707FA62B6002E01D0FEF78EFB65
:101DA00070BDC046E0F40220F4F3022020F50220CA
:101DB000380100D03C0100D070B5144C2368002BD2
:101DC00020D0FFF777FF2368002B1CD0104BDB6877
:101DD000DD68AB6B013313D128000830FEF7D0FD6E
:101DE0000C4A1368013B13602368013B2360FFF733
:101DF000B3FF686B01F0B6FE280001F0B3FEDCE72C
:101E0000FFF7AAFF70BDFFF7A7FFD6E700F4022097
:101E100000F50220FCF3022010B5FEF74FFBFFF7A0
:101E2000CBFF024B1B68022BF9D9F6E760EF0220CB
:101E3000F7B50400FFF73EFF264B274E1A68274DE3
:101E400001321A603768002F21D11B68012B1ED187
:101E50001420784301372818FEF762FD202FF7D1B0
:101E60001F4F3800FEF75CFD1E4B18000193FEF774
:101E700057FD1D48FEF754FD1C48FEF751FD1C4858
:101E8000FEF74EFD1B4B019A1F601B4B1A601B4A4D
:101E90001368013313602365194B226B19688A425A
:101EA00000D91A60142320005343E9184A68083007
:101EB0009768E260276178609060EA58A16101321A
:101EC000EA503368002B02D02000FFF7D3F8FFF769
:101ED00043FFF7BDFCF30220E0F4022060EF022094
:101EE00038F402204CF402208CF4022000F5022089
:101EF000ECF4022050EF022058EF022008F40220F8
:101F00000CF4022013B5059C0194049C0094FFF787
:101F1000BDF9012252421300002803D04260FFF7AE
:101F200087FF0123180016BDF0B5002689B004AD67
:101F300010220021280002F05FFF214B9C5D0296D9
:101F4000AC550136002CF9D13023029A1D4FAB5409
:101F50008022AC55230029001B48019700945200B1
:101F6000FFF7D0FF012827D13B68184A9C63136014
:101F700031230392029A2900AB548022144BAC55B2
:101F800014480193009423005200FFF7BBFF01287F
:101F900012D17B68039A9863536000F097FB012885
:101FA0000AD172B601220C4B52421A600B4B1860D8
:101FB0000B4B1C60FEF704FB0A4B1B6809B0F0BD1D
:101FC0003D2D011068F40220191E001044EF02207C
:101FD0006CF402206110001078F40220E0F402207A
:101FE00014F50220C43C011013B5069C0194049C16
:101FF0000094FFF74BF9002805D0059B4360FFF7DD
:1020000017FF012016BD01204042FBE770B5040018
:10201000FFF750FE002C02D1FFF714FB040025004F
:1020200008352800FEF7ACFCE36A002B03D0200043
:102030001C30FEF7A5FC274A136801331360264ABB
:10204000A36B1268002A35D0013333D0290023480E
:10205000FEF774FC224A136801331360A36B002B54
:1020600002DAFFF779FE70BDA36B012BF9DCD023F8
:102070001B06A26B1B689A4202D1FFF701FEF0E734
:10208000A26B934205D10121A26B164B9200D15055
:10209000E7E7A36B144D9B005B599B6B0233E0D0C9
:1020A000A06BFEF71EFA0222A36B52429B005B5903
:1020B0009A63D6E70D4A1368013B1360FFF760F897
:1020C000FFF74AFE606B01F04DFD200001F04AFD74
:1020D000C9E7C04608F40220E0F4022000F502201F
:1020E00000F4022020F5022044EF0220FCF302203D
:1020F00070B505000C00FFF7DDFD281E01D1FFF7CC
:10210000A1FA154B44601B68002B12D0836B002B87
:102110001EDB836B012B1BDC806B0123C4401C4244
:1021200007D1D022120612688400904204D10B4AD3
:102130001351FFF711FE70BD094D2B599B6B0233F4
:10214000F7D0FEF7CEF902222B5952429A63F0E7FC
:102150002800FEF78FFFECE7E0F4022020F50220D4
:1021600044EF02203C4BF7B51C68002C19D0FFF758
:10217000A1FDD0231B06394C1B6801210093236865
:10218000374A013B236000980023FFF70BF82368D0
:102190000024A34203D1334A1268A24257D1FFF769
:1021A000DBFD2000FEBD019BDB68DB68186A596A15
:1021B000DA6A81604860180054681C30844200D19B
:1021C00051600021D9621168013911601C009A69BF
:1021D000D86819690834816048605068A04200D10D
:1021E00051601168013911601A6B31688A4200D957
:1021F0003260142042431C498F1878688568D86083
:102200001D616C60846050589F6101305050019A8C
:102210001268002AC7D1002B01D0FEF7B1FF134D81
:102220002C68002C0CD00126FFF7D4F8002803D02E
:10223000009A0F4B9200D650013C002CF4D12C6038
:10224000009B0B4A9B009C58631E9C41A7E7094AD0
:10225000094E0192DBE7C046E0F4022004F40220BC
:102260003C0100D0FCF3022060EF022088F4022041
:1022700020F502208CF402200CF4022070B5050039
:102280000C00FFF769F80E4B296818680C19814299
:102290000BD9A1420BD82C600024FFF763FF002864
:1022A00001D1FFF7EDFC200070BDA14201D8A04292
:1022B000F1D22C60201A0021FFF7D2F90124ECE7BB
:1022C00014F5022010B5041E02D1FFF7D9FC10BD91
:1022D000FFF742F800212000FFF7C2F9FFF742FFA5
:1022E0000028F2D0F3E7000080231B060B4370B5F3
:1022F0004168036082680369C4688A6051605968F4
:10230000814200D15A600022026120001A68E1680F
:10231000013A1A60A369226908308A6051605968DD
:10232000814200D15A601A68216B013A1A600D4B44
:102330001A68914200D9196014234B430A4AD518F0
:1023400069688E68E1602661706088609958A5614F
:1023500001319950FFF7AEFC2000FEF78BFEFFF72E
:10236000FBFC70BD0CF4022060EF0220F8B5040005
:102370000D00FFF79FFC164B67681E68FFF762F9B8
:1023800079300378002B09D0FFF75CF9002379300E
:1023900003700124FFF7E0FC2000F8BD2B685A1CF5
:1023A00013D00C4A21681268914205D06268B2428B
:1023B00002D800232B60ECE7F21B9342F9D99B1B58
:1023C000DB1920002B60FFF727F90024E2E7C04665
:1023D00014F502207CF402200C4B10B51B6804009D
:1023E000002B12D0D0231B061868094B8200D1584D
:1023F00000290AD00139D150002906D10B00054A25
:10240000FEF7D0FE2000FEF769F810BDE0F40220D0
:10241000F4F30220380100D070B5FFF713F9C46956
:10242000FFF710F9056BFFF70DF920235B1BC36164
:10243000200070BD10B5FFF705F9002802D0C36D6C
:102440000133C36510BD000010B504004160006198
:1024500091420BD8D21A836901209A4205D2074BC8
:10246000211D1868FEF775FA002010BD9A4202D2AD
:1024700001209942F9D2024B211DF2E75CEF0220C4
:102480004CEF022070B504000D001600A1692B006E
:10249000320020006918FFF7D7FF002800D170BD77
:1024A000A3692000ED18236A9847EFE70D4B70B53C
:1024B0001B680500DB680E00DC68201DFEF760FA73
:1024C000220028321378590708D53200290020004D
:1024D000FFF7D8FF2000236A984770BD01218B4386
:1024E0001370F7E74CEF022010B508490B681A6823
:1024F000002A04D1064A10681360086010BD01214B
:10250000DB6849421868FFF7D1FFEEE74CEF022085
:102510005CEF0220F8B5FFF7CDFB0F4C2568002DCE
:1025200016D10E4F3800FEF7FBF90D4E3000FEF7C6
:10253000F7F90C4B2A001F600B4B10210A201E607C
:10254000FEF736FB2060002802D00849FEF744FD64
:10255000FFF702FCF8BDC04618F5022010F4022077
:1025600024F402204CEF02205CEF0220422D0110E7
:10257000F0B585B0514B01261B681D68002D02D0B7
:102580000026DB681D68FEF7E7FEFEF717FF4C4FDD
:1025900004003B68984214D33860002E48D0494B61
:1025A0001B681E6873425E41474B32001868291B46
:1025B000FEF730FDFFF7D6FD002807D1FFF760FBDF
:1025C00004E0FFF791FF3C60FFF7CCFD10220021F3
:1025D000684602F011FC3C4B0022694618686F46C1
:1025E000FEF7FAFB0028C5D0009B002B29DBBC6856
:1025F000002CF0D06369002B02D0201DFEF7C0F93B
:10260000FEF7DCFE2E4D06002B68984201D2FFF744
:102610006BFF00982E6001380828DCD8250028358B
:102620002B7810F0E9FA1616463440161646340098
:102630008542B9D8FFF796FD21002800FFF736FF45
:10264000C4E77B68F968B8689847009B002BC2DB39
:10265000CDE7012213432B70A169019B32002000BA
:102660005918FFF7F1FE0028B5D02B785A070AD584
:102670000199A36932002000C918FFF703FF200069
:10268000236A9847A7E7012293432B70F7E70122BB
:10269000796813432B703200A1613300200089193F
:1026A000FFF7D2FE97E79A0703D4200001F05AFA09
:1026B00091E7012293432B708DE7C0464CEF022037
:1026C00070F402205CEF022018F502201FB5FFF71E
:1026D00021FF00200A4B1B6883420ED0094B802249
:1026E00002930123084C5B42019320330093074976
:1026F0000300D2002000FFF777FC04B010BDC046F5
:1027000018F502201CF5022071250010472D01103C
:1027100030B514001A0002230D0085B00190064860
:102720005B42009369460023006802950394FEF71C
:102730000CFB05B030BDC04618F50220F7B50C24DF
:1027400044430193254B0092E4186368089A0500FE
:102750000E00934200D26260C0232F1F9B01FFB284
:10276000E318012F29D8012E27D103221A60A3686C
:102770003342FCD0009B22685B015340E0221340AF
:1027800080225201A2181360012F09D80321236867
:1027900073400B4013600123B340A2681342FCD086
:1027A000802380229B01E31812011A60089B019A82
:1027B00063600B4BAD00EA50F7BD802212011A6036
:1027C000074BAA00D1580029D4D0586901F0CAFBA0
:1027D000431C032058430338FDD2CBE70080004060
:1027E00040EC0220F7B505000E001800089917000C
:1027F00001F0B8FB089A0300140231003A002800E7
:102800000094FFF79BFFF7BD13B58024640000948C
:10281000FFF794FF13BD0000014B8000C0587047C4
:1028200040EC02208023DB051868000F7047000091
:102830000FB407B5084803F05AFC049B002B07D0DF
:1028400005A91800019103F097FA044803F04FFC22
:10285000012003F0ABFAC0464F2D01103B2D0110B3
:1028600010B50148FFF7E4FF5F2D0110EFF3108072
:1028700072B6034A1368002BFCD0BFF35F8F70471A
:102880002C0100D0BFF35F8F0022024B1A6080F34F
:10289000108870472C0100D00722CB08C35C0120B0
:1028A000114088401840431E9841C0B27047F8B5A7
:1028B00005000C001700FFF7D9FF210006002800D3
:1028C000FFF7EAFF002803D021003800FFF7B0FF30
:1028D0000723E2081C40063BA340A95C30000B43E1
:1028E000AB54FFF7CFFFF8BDF7B505000E0014009D
:1028F0001F00FFF7BBFF0190BC4202D901246442D4
:102900000DE021002800FFF7C7FF002811D10722A2
:10291000012322409340E1086A5C13436B54019801
:10292000FFF7B0FF002C06DA002E04D00898FFF75E
:102930007FFF0134E0E72000FEBD70B505000C000C
:10294000FFF794FF07230122E1081C40A2406B5CC3
:1029500093436B54FFF796FF70BD0000044A107854
:10296000431CDBB2172B00D9102313707047C046ED
:102970006D19002010B5034B01001800024AFFF743
:1029800096FF10BD3CEC02206D2D011013B5054BD8
:10299000054C0100009318221F232000FFF7A4FF1D
:1029A00016BDC0468C2D01103CEC02200021044BCA
:1029B000044ABFF35F8F02C39342FAD17047C04607
:1029C000000100D0800100D0084B8200D31810B560
:1029D0001C6840236340C0242340054CC0001219EA
:1029E0001360044BC018416010BDC04604C00140D4
:1029F00004D0014000400140064B8000C3181B6812
:102A0000C90092000A435A400C231A40024BC018D6
:102A10000260704704C0014004D00140054B8000B3
:102A2000C3181B680901594030231940024BC018D4
:102A30000160704704C0014004D001400123D0224E
:102A4000834010B51206936205219361FFF7BCFF26
:102A500010BD0000074B10309B688000C150BFF3D1
:102A60005F8FBFF35F8F0021034B196082F31088E3
:102A70007047C04600ED00E0240100D0054B064A37
:102A80001360064A136053609360D360136153610F
:102A9000936170478080808000E400E004E400E0FF
:102AA0001F2318401E3B8340002905D0C021044A43
:102AB0004900535013607047024AD367FBE7C04692
:102AC00000E100E004E100E001228240034B1B68CA
:102AD00013405A1E9341D8B27047C04600E100E04F
:102AE00001238340014A13607047C04600E200E0C2
:102AF000024B10309B688000C058704700ED00E02A
:102B000010B5FFF7F5FF044B2F22C31A00209A429D
:102B10004041C0B210BDC0467019002070B504001D
:102B20000D00EFF3108672B60A4A1368002BFCD032
:102B3000BFF35F8F2000FFF7DBFF074B984203D006
:102B4000A84201D001F0EEF8320029002000FFF782
:102B500081FF70BD240100D0C1010010F0B587B025
:102B6000049003910192EFF3108372B6564A0593D5
:102B70001368002BFCD0BFF35F8F544F3B787F2B43
:102B800001D901F0CFF80023FB56514E1C000093F1
:102B90000C235C43A31902939B793B704D4B9A68BD
:102BA000049B10339B0099588B1B2F2B20D94A4B29
:102BB000994201D001F0B6F80C25009B02345D4328
:102BC000464B34197353464B464A043B1B1B1B05AB
:102BD0005B0D751913436B80434BAB80FF23AB71C7
:102BE000019BEB71039BAB600121029B194331E018
:102BF00001230F009F433B000022D879019DA8428A
:102C00002ED83A4B37489C46002A36D0062696578F
:102C1000002E30DB9388364D5B051B15D3186519E4
:102C20005B1B04331B055B0D0343029CA41A083C89
:102C30002405640D04430098948090710C22424353
:102C40002348121860469380019B1060D371039B48
:102C500096719360059A0498FFF7FCFE07B0F0BDEB
:102C600006201856002804DB0C2250431A003318A3
:102C7000C3E71A00C5E71C4BD7E70C2214493B00F9
:102C80001C4D5B1A5B415D432D0D009BA61C5A43F6
:102C9000124B76185352124B8A18043B9B1B1B0590
:102CA0005B0D03435380019B0434D371039B641871
:102CB000936063463C1B043C2405640D20439080D4
:102CC00095713B6090E7C046240100D093F6022046
:102CD0007019002000ED00E0C101001000A1FFFF0D
:102CE000A019002000E0FFFF01BDFFFF0148804761
:102CF00074190020AAAA0000F0B585B00500009163
:102D0000EFF3108372B64A4A01931368002BFCD08C
:102D1000BFF35F8F2F00474B10379B68BA00D45822
:102D2000454B9C4269D0009A944200D17DE0434BD0
:102D3000E31A2F2B61D82800FFF7C6FE002102906E
:102D40002800FFF7ADFEBFF35F8FEFF30586002E7F
:102D500003D0B74201D000F0E5FF012322009A43DF
:102D600013000C2200219446344A039206229868EC
:102D7000009F9A56874214D1002A1ADA002E47D1B2
:102D8000002943D0FF228A712D4A8A802D482B4981
:102D900002789A712C4A5B1A5B415A43120D0270F9
:102DA00027E0002A25DB61464A431900039B9B1854
:102DB000DCE70C20504321490E18B7689F60F77973
:102DC000DF710627F7579F71002F1DDBB688C91AE0
:102DD000760536158019091809051C48490D014367
:102DE00099800C215143154B5B18164908780A70DD
:102DF000987128000299FFF753FE21002800019ADC
:102E0000FFF728FE05B0F0BD0D49E9E70A4CBDE724
:102E10000F4A1049D21A083A5002400D01439980D6
:102E20000D4952080A43DA80E3E71C00E5E7C04693
:102E3000240100D000ED00E0C10100107019002055
:102E400001BDFFFF93F60220AAAA000000E0FFFFE9
:102E5000AA19002000F0FFFF00F8FFFF10B50324BF
:102E600083082040A040FC3484408140034A9B00FA
:102E70009B181A68A2430A431A6010BD00E400E0E0
:102E800001230343F0B51E00EFF30581EFF3108734
:102E900072B61C4B1B68002BFBD0BFF35F8F1A4A26
:102EA00004001A4BA41A644163431B0D5BB29C4699
:102EB000174B89009B6814005B581D000023B54226
:102EC00014D1134B134A9B685A50134B1A788271D2
:102ED00062461A70BFF35F8F00230A4A136087F3BC
:102EE0001088F0BD01330C34042BEED0062161565E
:102EF0006145F7D10C214B43D318FF229A71074A41
:102F00009A80E2E7240100D070190020AAAA0000EC
:102F100000ED00E0C101001093F6022001BDFFFFAB
:102F200013B5074B074C0100009300220523200036
:102F3000FFF7DAFC002801DB1F23181A16BDC04674
:102F4000A72D0110B8F60320024BC91889000160B3
:102F50007047C0464000003410B50400FFF7FEFC87
:102F600001002000FFF7F0FF01235B426360BFF325
:102F70005F8F10BD10B50400FFF7F0FC01002000CA
:102F8000FFF7E2FF01235B42636000232372BFF37C
:102F90005F8F10BD10B5084C084B9C4200D310BD8C
:102FA00023682000002B03D0FFF7E4FF0C34F3E785
:102FB000FFF7D2FF0834EFE7D41F0020F41F0020F2
:102FC000034BC91889000160BFF35F8F7047C0468B
:102FD0004000003410B504000120FFF7D7FC0100C9
:102FE0002000FFF7EDFF10BD074810B50268EFF3B2
:102FF000108172B61368002BFCD0BFF35F8FFDF712
:103000003BFB0020002110BDE4F30220F8B5C160B5
:10301000040016001F000D00FFF7A0FCD022267050
:1030200012061268144B62700122C0185242BBB2E1
:1030300063819B1863800023800020612281A2802D
:10304000BB4212D101270D4BB200D4503C00B4401A
:1030500030002C620A49FFF761FD39003000FFF7AC
:103060001FFD084BED182C60F8BD1820584361690E
:103070005A1E42520133E3E74000003434EF02208D
:10308000E13000103820000010B5094C2369002BF6
:1030900009D10321074800F0C9FA102303222000B8
:1030A0000449FFF7B3FF0A210348FFF74DFF10BDA6
:1030B000B819002000400540E4F3022010B5074C89
:1030C0000300626A0020914206D8A46A01309C4243
:1030D00002D2881A431E984110BDC04600400540E8
:1030E000F0B589B0EFF3058203231A40964B0592A1
:1030F0009200D4580123059A93400693069A934B65
:103100001A60934B069A5A630822A35E0393002B1E
:1031100054DB1823039A656953438D48ED18AE6854
:10312000EF6800F08DFA8F4248DC01D1864245D825
:10313000002F00DA6DE06A692B690492854A934298
:1031400055D1049B04981B699847002800D160E082
:10315000049B1A685B6800920193009B019A1343D9
:1031600057D0002A4DDA009A019BB61A9F410022DF
:10317000AB5EAE60EF60002B20DB626994461822E4
:103180005A436244D168B94218DC02D19268B24213
:1031900014D821002381083118225A436244D06890
:1031A000B84208DC02D19068B04204D81100002275
:1031B0008B5E002BF0DA2B80039B0B80A3881BB265
:1031C000002B3DDAA379002B09D00023A371200046
:1031D00018250822A35E08305A1C00D070E008238E
:1031E000E15E002900DB87E040BF09B0F0BD0821A7
:1031F000605E6A880004049910439847009001912A
:10320000ABE7534800F01CFA009E019F36184F416F
:10321000ADE72B8821692381EFF3108372B60A682A
:10322000002AFCD0BFF35F8F62882A80039A6280F5
:103230002269BFF35F8F0021116083F31088BDE71F
:103240002169EFF3108372B60A68002AFCD0BFF33D
:103250005F8F0121A2884942A18012B22169BFF388
:103260005F8F0020086083F31088230008330793E2
:10327000002A00DAA6E71821514363690798591814
:1032800003938B68CF6804930823E55E002D0EDB63
:103290000026835F18267343039EF318DE68BE4240
:1032A00005DC09D19E68B446049EB44504D9028069
:1032B0000023CA5E0D80DBE718000023C55EE5E74A
:1032C0002900594366697218765E5188B44609B27E
:1032D00000290FDA0826A15F01267642F7179660CB
:1032E000D7608B4204D061460180218911802381FF
:1032F000634671E71000FBE718224A4363699B1895
:103300009D68DE686B1C01D1731C10D0059B104FAB
:103310009B00DB19B96A1A69681A521A904205D3E0
:1033200001220598396A8240114200D11D61084886
:1033300000F086F98E4200DD56E700D0E1E68542D6
:1033400000D8DEE650E7C04634EF02203C7005406E
:1033500000400540E130001000487047B8190020D7
:10336000F0B501000469EFF3108672B620680028FA
:10337000FCD0BFF35F8F02200D5E182068434C69BC
:103380002418002D01DB208848800869BFF35F8F77
:103390000027076086F31088BD422CDBE36063885A
:1033A0000598013320615B0406985B0CA2606061A4
:1033B0001A1CBB4200D1012293B228046280184338
:1033C0000E69EFF3108372B63268002AFCD0BFF3A7
:1033D0005F8F8A8822808D800A69BFF35F8F002407
:1033E000146083F3108801220B789A40CB6803495C
:1033F0005B181A60F0BD01204042FBE73C20000052
:10340000F7B51F000AAB1C7805001600002C09D088
:10341000099B32000193089B280000933B00FFF7B3
:103420009FFFFEBD00F038F932003B00121A8B41BD
:10343000002BEDDA2000F4E770B5030040890A1490
:10344000904201DC002070BD182050435A691C696D
:103450001218EFF3108572B620680028FCD0BFF375
:103460005F8F568889B20020B4B28E4205D1802188
:1034700009020C435480013098711A69BFF35F8FC1
:103480000021116085F310888842DBD00122197871
:10349000DB688A4001495B181A60D4E73C200000D1
:1034A00040787047F0B506000F0096246442E51797
:1034B000A4197D4185B08D4202D803D1844201D93F
:1034C0000024002500F0E8F822002B00121A8B419E
:1034D000002B08DC01D1002A05D13000390000F0B2
:1034E000EDF805B0F0BD0023029301930D4B2200CF
:1034F00000930D482B00FFF783FF0130EDD0200033
:103500002900FFF7DBFD0028E7D108480268EFF348
:10351000108172B61368002BFCD0BFF35F8FFDF7EC
:103520007DF8ECE7E92F0010B8190020E4F3022041
:1035300070B504000D0000F0AFF8001969410029D2
:1035400002DA012002494042FFF7ACFF70BDC046DD
:10355000FFFFFF7FFA2210B500239200002101F047
:1035600059FBFFF7E5FF10BDF0B506000F0089B06D
:10357000EFF305830693002B02D0300039002AE0D8
:103580001C4DEB682C781800079300F059F80434B0
:10359000079BA40005913200E1583B0004900C1AEF
:1035A00004980599121A8B410699994204DC01D1BD
:1035B000944201D820BFE0E70023029301930E4B11
:1035C0003200009328003B00FFF71AFF3900040087
:1035D0003000002C03DCFFF771FD09B0F0BDFFF7F0
:1035E0006DFD002800D120BF21002800FFF724FF37
:1035F000C3E7C046B8190020E92F00100749426808
:103600004B6A10B5046800209A4206D8896A0130D6
:10361000A14202D2D01A431E984110BD004005407D
:103620000260436000487047FD35001010B5024A43
:103630000248FFF73CF910BDC22D011092F602209E
:103640000300416A0A00986A596A8A42FAD17047AF
:10365000416A9942FCD3994202D1816A914200D3D6
:103660007047416AF7E7F7B514001D000190FFF7B6
:10367000E7FF220006000F002B0092197B419942C0
:1036800002D804D1904202D901225242D3170198A4
:10369000FFF7DEFFF7BD000010B50248FFF7D0FFCF
:1036A00010BDC0460040054010B502000B000248A6
:1036B000FFF7D9FF10BDC0460040054010B502001D
:1036C0000B000248FFF7C4FF10BDC0460040054094
:1036D000F8B504001F4817001E000D0000F042FC62
:1036E0000100380000F03EFC069A33041203134335
:1036F0002268002A0FDA3F2122680A40AA420AD132
:10370000A2681205120D824205D1EE21E268C902BB
:103710000A409A421CD0104A104EA1184A42514108
:1037200001220C318A400E490A600E490A601700D6
:1037300031688F43391EFAD10B4A2131A218256016
:10374000A060116021680029FCDAE360082313609F
:10375000F8BDC046001BB7000040FDBF08C00040D8
:1037600000E0004000F0004004300000024B1A6806
:10377000024B5A607047C04610EF0220008005409F
:1037800003008020114AC00510B5114C106011488B
:103790000460E020104CC004002906D02060002BFB
:1037A00005D180231B06236010BD1060F7E7FA20C7
:1037B000C00058438023094A5B04984200D308485C
:1037C0001060FFF7D3FF8023DB05ECE700B0054076
:1037D000FCFF01000820014000A0054010EF02207E
:1037E000FFFFFF0070B50400100080220A4BD205D5
:1037F0001A600A4B002C0CD00125094A2C43DA61CF
:10380000084A62401A6259629C620021FFF7B8FFC1
:1038100070BDDC61F9E7C04600B00540008005409E
:10382000D3C007B02D3FF84F8023024A9B000B43C3
:10383000D362704700800540142310B5010018883A
:1038400004331B88984710BD162310B50100188853
:1038500002331B88984710BDF8B50E0004000027FE
:103860000125B74201D12800F8BD2068FFF7E4FF29
:1038700001C4431E984101370540F2E770B50400CA
:1038800005480D00FFF7D8FF03000020844201DB4C
:103890000130A0402900984755420000AA22064B5B
:1038A00012011A602132FF32DA600449044A1160C1
:1038B0005A68002AFCDA70470040024000B0FA0063
:1038C00000600240024B80009B68C0587047C046B1
:1038D00000ED00E0F8B505000E00EFF3108772B6BA
:1038E000FFF7F0FF0400B04207D0094B984202D323
:1038F000084B984201D300F015FA074BAD009B68C6
:10390000EE50BFF35F8F87F310882000F8BDC046EC
:10391000C0010010D401001000ED00E0D02301220E
:103920001B06196D114201D0986D704720BFF8E752
:1039300003BD10B5040000F009FAA04710BDD02364
:1039400002221B06196D1142FCD0586540BF70471A
:1039500070B580250D4B6D020D4A1D6013682B421A
:10396000FCD00F20FFF7B0F8002104000F20FFF774
:1039700097F80022074B5A70074B1D60FFF7CEFFE8
:1039800021000F20FFF78CF870BDC04604200140D5
:103990000400014095F6022004300140F0B5040017
:1039A00089B00F200F001600FFF78EF8002101905C
:1039B0000F20FFF775F8002301220697D027079400
:1039C0001C0002AD02933F066B60AA60EE60A3008C
:1039D000EE58002E04D101223B6D134210D140BF9E
:1039E0003000FFF7ACFFFFF799FF86420AD10134A0
:1039F000062CECD10F200199FFF752F809B0F0BD69
:103A0000BB6DE8E70024E2E703239A438B1810B567
:103A10000C001900064A0C39926808601800083832
:103A200004600448043B18600348FFF7B7FF10BD6B
:103A300000ED00E033390010313900100549064B24
:103A400010B5994201D20121494280221201FFF7AB
:103A5000DBFF10BD0008042000000420431EF7B562
:103A600000240A330CD80400083407222300134032
:103A7000144205D01A00093AA2422DD31030C41ABC
:103A8000FDF76AFC31490B68002B1CD1304A073323
:103A90001A4223D0D018984380235B02D318020027
:103AA0001B1A00202B4DD31868602A600725083B9D
:103AB000AB43186058600B60981A1360264B506037
:103AC0001860264B1860002C0BDCFEF74BFB002522
:103AD000FCF7F4FB2800FEBD0024D1E780235B0245
:103AE000DFE71E4F3868A042EFD31A4A13685E68BA
:103AF000A64202D21D68002D24D109689942E4D063
:103B000019681568019111600835311B102905D914
:103B10001E19716001993160166026000E49821BE2
:103B200008683A60824200D20A608022120632435C
:103B30005A6000221A600A4A136801331360FEF7C4
:103B400011FBC7E71A002B00D1E7C04654EF022053
:103B5000A1F60220E4F4022074F4022064F40220AE
:103B600080F4022070B5041E34D0083C6368002B3A
:103B700030DA2268002A2DD125005B005B086360E3
:103B8000FDF7EAFB144A616813685B181360134B76
:103B90001A001B689C42FBD850681618B44202D128
:103BA000150009185160686819002C18A34207D144
:103BB0000B4909688B4203D0596809186960196874
:103BC0002960AA4200D01560064A136801331360C9
:103BD000FEF7C8FA70BDC04664F40220E4F4022087
:103BE00054EF022084F40220F7B5076B04000E00A6
:103BF0000192FB0715D5104B104AC3181A60456A8D
:103C0000836AAD010620ED18FEF706FE0C4900F0B0
:103C1000A9F9AD020100280000F0A4F90021FFF786
:103C200043FDE36A5E40019B33401E00054BE318F1
:103C30001E602763F7BDC04630300000010300005E
:103C40004E0E00002C10000070B5060006200C007F
:103C5000FEF7E2FD2100C00000F084F901300124EC
:103C6000C50905D00C4B9D4212D840062C00850E8C
:103C70000022110030007462B562FFF7B5FF062024
:103C8000FEF7CAFDA1014919800000F06BF970BD73
:103C90000025024CECE7C046FEFF0000FFFF0000DD
:103CA00070B5040006200D00FEF7B6FD002828D0F0
:103CB000144B1549E21853425A41012316329340DE
:103CC000124A1360124A136018000A689043FBD12D
:103CD0000C4B104AE31859424B4180215B004900CC
:103CE000995220002900FFF7AFFF7023E26A53408A
:103CF0007E221340084AA2181360084B2363032353
:103D0000A36470BD0080FCBF08C0004000E000401C
:103D100000F0004052F502202C10000001030000CA
:103D20007047000010B50148FEF782FDE42D011038
:103D300010B5044C044B9C4200D310BD08CC9847EE
:103D4000F8E7C046A82C0110E42C011010B5044C73
:103D5000044B9C4200D310BD08CC9847F8E7C046FE
:103D6000DC2C0110E42C0110054B064A06491A60B0
:103D7000064B074A136018000A689043FBD170474E
:103D800000E00040BFCDFBFE08C00040FE7F3C00CD
:103D900000F00040044BDB6C002B03D18022034B6E
:103DA000D2021A607047C046000011504C201150DA
:103DB000044A054B1A60054A1368DB018033FBD1C6
:103DC0007047C046FFFFFF0100F0004008C0004000
:103DD0004022034B9A675A671A67DA667047C046F3
:103DE00000F0014010B5FEF7E1FD10BD70B50B49C4
:103DF0000B4C0C4D641AA4102200302C00D9302238
:103E00002800920000F0FEFF074B2F2C02D9074B31
:103E10009D6070BDA200AB500134F6E700010010B8
:103E2000C001001000000020C101001000ED00E002
:103E3000002373B5284DAB67FFF730FD0122274BF8
:103E40001A606B6C012BFCD10322254B1A60AC6B02
:103E5000012CFCD102260525210000960623214ACB
:103E60002148FFF735FC2B00210000951F4A204810
:103E7000FFF72EFC3100002204201E4BFEF7C4FC8D
:103E80002800210000221C4BFEF7BEFC0022072068
:103E900011001A4BFEF7B8FC002208201100174B46
:103EA000FEF7B2FC80230022DB0011000093092002
:103EB000124BFEF797FC00220F4B11000620FEF775
:103EC000A3FC0420FEF7A8FC0D4900F04BF801000C
:103ED0000020FFF7A9FC73BD008000403CB000400B
:103EE00030B00040002F685900800240008C8647A7
:103EF00000C00240001BB70040597307006CDC0291
:103F000040420F0001480421014B1847D0190020FE
:103F100059380010124A936F9B0815D29066D166EB
:103F2000002905D0FFE7FFE7FFE7516F106F7047EB
:103F300004B580210906C2175140002800D0C843AB
:103F40000EF01AFE002104BDF0B5146E556E576FC9
:103F5000166FFFF7E3FF1466556657671667F0BDE7
:103F6000000000D0114A936F9B0813D2106651666F
:103F7000002905D0FFE7FFE7FFE7516F106F70479B
:103F800004B5002801D00020C0430EF0F5FD00214B
:103F900004BDC046F0B5146E556E576F166FFFF72F
:103FA000E5FF1466556657671667F0BD000000D040
:103FB00094464A4A926F9208624601D228E0C0466F
:103FC000F0B5464E346E756E776F366F00F020F8A0
:103FD0009446424A14665566576716676246F0BDB6
:103FE00094463E4A926F9208624601D254E0C0461F
:103FF000F0B53A4E346E756E776F366F00F04CF850
:104000009446364A14665566576716676246F0BD91
:10401000002B24DB11D000293EDA00B5C943404211
:1040200000D1013100F038F8C943404200D10131DC
:10403000DB43524200D1013300BD002AEBD10028FE
:1040400001D1002905D00020C90FC90701D1C04303
:10405000410800B50EF048FD0022002300BD00B568
:1040600000290ADBDB43524200D1013300F014F88F
:10407000C943404200D1013100BDC943404200D193
:104080000131DB43524200D1013300F005F8DB433C
:10409000524200D1013300BD002923D1002B18D199
:1040A000002A0CD0BC460D4F38667A6600210023EA
:1040B000FFE7FFE7FFE77A6F386F67467047002832
:1040C00001D00748010000B50EF00EFD00220023CC
:1040D00000BD02000B00002000217047000000D04E
:1040E000FFFFFFFF002B00D0BFE0130C28D1002AF8
:1040F000E7D080B4114F39667A66FFE7FFE730B446
:10410000040C7B6F396F1B0423433B667A66FFE721
:10411000FFE7FFE7C04684B27B6F3D6F1B0423437C
:104120003B667A66FFE7FFE7C04600232C042D0CB0
:104130007A6F386F00196941B0BC7047000000D039
:10414000F0B594460025140E01D112020835140F63
:1041500001D112010435940F01D192000235D40F20
:1041600001D152000135D40B0134254F7C66254C1A
:104170003C660E0C93B2FFE7FFE7FFE73C6F664338
:10418000360C7703BE467343DF0B5B04C01AB9419C
:10419000130C7343DB18C91ACE086643360CB644B9
:1041A00093B273431F0F1B01C01AB941130C734321
:1041B0001F0B1B05C01AB941860D8F023E43664393
:1041C000360C092D24DB520A7243801A7703460A03
:1041D0006643360C16235B1BDE40DF40BF19644686
:1041E0006643821B7046043506330100D940A8405F
:1041F000C01900D30131A24206D20023F0BD000055
:10420000000000D0FFFFFFFF121B0130F3D3F1E7E6
:1042100009277F1BFE406446A2B27243801A00D277
:104220000139220C7243130C1204821A99410B00BB
:104230007046043513370100F940A840801900D3B7
:104240000131002B02D1A2420AD2F0BD013000D3CD
:104250000131121BFAD2013BF8D1A24200D2F0BDCB
:10426000013000D30131121BF7E7F0B51C0C00D070
:1042700080E00CB400251C0A04D11B02160E334347
:10428000120208351C0B04D11B01160F3343120117
:1042900004359C0B04D19B00960F334392000235EA
:1042A000DC0B02D192185B4101351C009718644168
:1042B0000134464F7C66464C3C660E0CFFE7FFE738
:1042C000FFE7C0463C6F6643360C7703BE4697B2A5
:1042D0007743C01B00D20139C01B00D201399FB205
:1042E0007743C91BC91B170C77437E04FF0B801B48
:1042F000B941CE086643360C0C2D33DBB644120BA5
:104300001F053A431B0B97B27743C01B00D20139FC
:104310009FB27743C91B170C77433E043F0C801BA9
:10432000B941860D8F023E43664329277F1BFE401D
:104330000C3D7746AF40BF1930BCA2B2ABB272435E
:104340007343801A9941220C7243130C1204801A91
:10435000994102000B000137001BA941F9D2781ED8
:104360000021F0BD0C277F1BFE4077467F0BAF403E
:10437000FF19E0E700245D1C07D0144F7D66396605
:10438000FFE7FFE7FFE7FFE73C6F95B29EB26543AB
:104390006643401BB141150C1E0C65436643360451
:1043A0002F0C3E432D04401BB141994204D2020020
:1043B0000B0020000021F0BD01D19042F7D3801AFC
:1043C000994101349942F2D3F6E70000000000D091
:1043D000FFFFFFFF48404140484018B4134B5B6863
:1043E000019308BD18B4114B1B68019308BD944696
:1043F0000F4A926F920805D2624618B40B4BDB68E5
:10440000019308BD0A4AF0B5146E556E576F166FCA
:104410006246FFF7F2FF064A14665566576716674D
:10442000F0BD18B4014B9B68019308BDE0F1022078
:10443000000000D0FFB550404240504059404B4032
:10444000594000E0FFB5154F4C00640D03D0BC424D
:1044500004D10C0314D80020090D09055C00640D7B
:1044600003D0BC4204D11C030AD800221B0D1B053B
:1044700001264B4009D44B4003D58B4200D18242E8
:10448000FFBD9942FCD19042FFBD0B43DB180343B3
:104490001343F5D0C9434918FFBD0000FF070000D2
:1044A00000B5FFF7CFFF01D0002000BD012000BD07
:1044B00000B5FFF7C7FF804100BDC04600B5FFF75C
:1044C000C1FF01D9002000BD012000BD00B5FFF7EC
:1044D000B1FF01D9002000BD012000BD00B5FFF7EC
:1044E000A9FF804100BD012040054A00121804D8F0
:1044F0005A00121801D800207047012070470000B0
:104500000021002805D17047C1174840401AFAD051
:10451000C90713B5064B1B6898470CBC441CA24046
:104520001005120B0349091B09051943114310BD5E
:10453000E0F202201F04000010B54C00620D802341
:10454000D218DB00D21A5B057E2A10DD9E3A13DA00
:10455000CC170903490819435242D1406400013481
:104560001532202A05DAD0400843604310BD0020F0
:1045700010BD0846604310BDC80FC018013810BDFB
:1045800018B4024B5B6A019308BD0000E0F1022001
:1045900018B4024BDB6F019308BD0000E0F102206C
:1045A00018B4024B9B6D019308BD0000E0F102209E
:1045B00018B4024BDB6C019308BD0000E0F102204F
:1045C00018B4024B1B6D019308BD0000E0F10220FE
:1045D00010B50148FEF72CF9F02D0110132370B52A
:1045E0001C78114D012C0ED1002310499A00013383
:1045F000A950202BFAD10E4BAB640E48FFF71CF9E3
:104600000D4B186070BD012CF5DD0C48FFF71CF94F
:1046100006000B48FFF718F980223100280000F04F
:10462000F1FB022CE9D1E6E7E0F10220D1450010D0
:10463000E94B00104C330000E0F20220534400002C
:10464000534600004B0070B55B0D04000D00002BBD
:1046500008D00C4EB34205D0D318002B03DC002049
:10466000CB0FD90770BD084EB34206DDCB0F074A0A
:10467000DB071A4300201100F4E7002011050019A0
:104680006941EFE7FF070000FE0700000000F07F30
:10469000F7B54B00134A5B0D04000D0001919B1808
:1046A0001DD434260020F61A864217DB3200012082
:1046B0004042C1170EF040FA23002A008343002035
:1046C0008A431343834209D10130342E06D032008D
:1046D000200029000EF0B8FA01231840FEBD00208A
:1046E000FCE7C04601FCFFFFD0B506000F00140038
:1046F000012A0ED0D20F12195210FFF7F5FF020057
:104700000B00FFF78EFEE40703D532003B00FFF7F6
:1047100088FED0BDF0B54C001600634A640D8BB026
:10472000121B1F00FFF78EFFFFF74AFF5F4A604B27
:10473000FFF75DFE00225F4B00900191FFF7CEFE78
:1047400000280DD15C4BE418002C13D1009801997E
:1047500032003B00FFF765FE00F05EF90BB0F0BDE4
:10476000564B009801990022FFF737FE544B0090FA
:104770000191E8E7002230003900524BFFF7A6FE16
:10478000002804D00020002C0CDB4F49E6E7002273
:10479000300039004D4BFFF791FE002804D0002077
:1047A000002CF2DB0021D9E73000390000F0FCF8E2
:1047B0000B0004900591020039003000FFF70DFE58
:1047C0001A220290039100F0EBF800F0EDF81A22A3
:1047D0005242FFF737FF0690079104980599FFF7BB
:1047E000ABFE03006343089020000993FFF78CFEA3
:1047F000069A079B04900591FFF713FE06000F0031
:1048000000F0D2F80D000400FFF796FE099B22008D
:10481000C318099330002B003900FFF7DEFD069A1C
:10482000079B04000D0002980399FFF7D6FD049A38
:10483000059BFFF7F6FD22002B00FFF7D3FD049048
:1048400005910898FFF760FE009A019BFFF7E9FDCC
:1048500004000D0000F0A8F806000F0002000B0095
:1048600020002900FFF7B9FD049A059BFFF7BAFD68
:10487000029A039B04000D0000980199FFF7D1FDF7
:1048800022002B00FFF7AEFD00F0C6F804000D007B
:1048900030003900FFF750FE099B2900C2182000A4
:1048A000FFF7D0FE5AE7C046FF030000EF39FAFEDB
:1048B000422EE63F0000E03F01FCFFFF0000F03F1A
:1048C00002FCFFFF0000B0400000F07F0000B0C01D
:1048D000F0B506000F0085B0009201930098019991
:1048E00002960397002F12DAFFF7D2FE80231B06F1
:1048F000FD182F000028F1D03000009A019B2900FC
:104900008024FFF7E5FF2406091905B0F0BDFFF785
:1049100013FE3B0D04000200002B19D01C498B42F2
:1049200016D0039902980903090B084310D1194ABC
:10493000944200DA140080221201944200DB144CED
:10494000154A00209A1862431449FFF77BFEDCE702
:10495000002C1AD023002033402B0FD8002C08DA6B
:1049600032003B0000200D49FFF741FD06000F001B
:10497000624230003900FFF7B7FEC6E73000009A08
:10498000019B3900FFF7C6FEBFE700200349BCE7E3
:10499000FF07000000F8FFFF01FCFFFF0000F03FF1
:1049A00010B5FFF74FFE10BDF8B54B000D001849CC
:1049B0005B0D5B180400591C05DA0022E90FCB07D8
:1049C00014001D0007E0591C08D1EB0F114ADB074A
:1049D0001A430024150029002000F8BD342BFADA10
:1049E0003326F61A3200012000210EF0A5F832001D
:1049F00024184D41022000210EF09EF80027464267
:104A00008F41210031400A00290039400B00D7E7CF
:104A100001FCFFFF0000F03F194B70B50A0D0400C8
:104A20000D009A4226D00022164BFFF747FD0028C2
:104A300020D1002220002900134BFFF747FD00285A
:104A40001BD120002900FFF7AFFFFFF775FD06001F
:104A5000FFF75AFD02000B0020002900FFF7BDFC04
:104A60000A4A0B4BFFF7DDFCFFF7A2FD3200FFF710
:104A7000E9FD70BD00200021FBE700200549F8E7B3
:104A8000FF0F00000000B0C00000B040EF39FAFE98
:104A9000422EE63F0000F07FF0B514001D0085B007
:104AA0000022494B06000F00FFF7FAFC00282FD127
:104AB0002B0D01935B055A0D0292002B00D17EE075
:104AC000002230003900414BFFF7EAFC002804D0F7
:104AD0003F4B029A9A4200D171E03B0D5A05510DAD
:104AE00003970091002A17D120002900FFF7D0FD7D
:104AF000002D04DB00280BD10026002708E0002849
:104B000060D0039B3348D90FC90708430700009EB4
:104B10003000390005B0F0BD2D498B4204D100268C
:104B2000002DEADB2B4FF3E72B4A93420FD12000F5
:104B30002900FFF7ADFD0026002D03DB0028F1D092
:104B4000264FE5E70028D8D080273F06E0E7019B05
:104B50008B4205D1224B009A00269A42CDDDE1E737
:104B6000019B934205D11E4B009A00269A42D9DD43
:104B7000C3E7029B1B4A9B1817D43422D21A002A7F
:104B80000ADD01204042C1170DF0D6FF23002A00A4
:104B900083438A43134308D122002B00300039009D
:104BA000FFF796FE06000F00B2E7039B002B09DB20
:104BB00022002B0030003900FFF7ACFDF2E70026A1
:104BC000014FA5E70026ADE70000F03F0000F0BF71
:104BD000FF0700000000F07FFF0F00000000F0FF63
:104BE000FE03000001FCFFFF07B5604601880A0ACA
:104BF0000230DF2AFAD1C9B2820804D30288408881
:104C00000004104300E00068014A5050039007BDC3
:104C1000E0F1022051434343C9188C46110C83B282
:104C20004B4310B4040C614392B280B250436243D0
:104C30001C041B0C001910BC59411304120CC018A1
:104C400051416144704700004840414048400E4B8C
:104C50005B6818470C4B1B6818470C4A936F9B08FE
:104C600002D2094BDB681847F0B5146E556E576FCA
:104C7000166FFFF7F6FF054A146655665767166705
:104C8000F0BD014B9B681847E4F20220000000D001
:104C9000C10FC90700D54042002817D0F44603B41D
:104CA0000B4B1B68984706BC81409E3840428031C0
:104CB00007D20B0607D04900490AC0051043084334
:104CC00060470130F8E7490A8902F5E770470000BC
:104CD000E0F20220014BDB6F18470000E4F20220F3
:104CE00010B50148FDF7A4FD3C2D0110132310B5AC
:104CF00011481C78FEF7A8FD0100012C14D10F4CBF
:104D00005422200000F07EF800230D4A216800297B
:104D100000D1226001330434202BF7D10948FEF77B
:104D20008BFD094B186010BD012CF7DD8022034874
:104D300000F068F8F2E7C04653460000E4F20220B3
:104D4000E14C00104C330000E0F2022010B50028C6
:104D500003D0044B4018984202D90348FDF768FD80
:104D600010BDC04600000420082E011070B50500DB
:104D7000084E30000DF088FF28000BF0BBFC04004B
:104D800030000DF0A9FE29002000FFF7DFFF200012
:104D900070BDC046D41F002070B50D000400094E40
:104DA00030000DF071FF290020000BF0ADFF040072
:104DB00030000DF091FE29002000FFF7C7FF200012
:104DC00070BDC046D41F002070B50400054D2800FA
:104DD0000DF05AFF20000BF097FC28000DF07CFE30
:104DE00070BDC046D41F002001480421014B184764
:104DF000E019002059380010014B1B6818470000CB
:104E0000E0190020014B5B6818470000E019002002
:104E100010B5FFF7ABFF10BD10B5FFF7D5FF10BD04
:104E200010B5FFF7D1FF10BD9A4200D288547047E9
:104E30007047F0B585B002930D9B070014000B9EE0
:104E400001919B071ED003923500039BF018421B73
:104E5000002D19D10D9B051B9B0722D405B0F0BD79
:104E60002020029B0199B84701350C9BA21BAA1870
:104E70009D42F5D30C9A0023B24200D3931B1B1919
:104E80000393E1E73500F0E70A9B013D585D019986
:104E9000029BB847D9E70200029B20200199B8473E
:104EA00001350C9B6019AB42F5D8D7E7F0B589B056
:104EB000059110A90E7814990490069207930E9A02
:104EC0000F9B119C13988D071AD401250D400028C3
:104ED00007D0002D05D0002E02D10C27394200D07A
:104EE00001383027BC4602E06746D7540133129F91
:104EF0009F4201D9202BF7D13027BC46002D17D176
:104F0000CD0639D54D0519D4002B17D0129DAB42D3
:104F100001D0834212D15D1E012B0ED0023B102C1A
:104F20000ED02B00022C24D135E06546D554013338
:104F30008342E5D2202BF8D1E2E72B00102C26D1BA
:104F40008C060FD47824202B0FD1202303910290BC
:104F500001930092079B069A05990498FFF769FF51
:104F600009B0F0BD202BF0D05824D4540133202BAD
:104F7000EBD03024D4540133202BE6D02D24002E46
:104F800002D14C0709D52B24D4540133DEE7022C7F
:104F9000EDD1202BD9D06224E7E70C07D6D5202409
:104FA000F2E7F0B597B00B921CAA0C9308CA219CAB
:104FB000157809900A91002B01D1102294436205C3
:104FC00001D5002B1FD06122A10600D541221E0071
:104FD0000027D2B20A3A0D9230001E99FEF7C2FFA6
:104FE0000D9ACBB29A188446D2B2092901D830332F
:104FF000DAB2202006A90918CA551E9A7B1C9642CF
:1050000001D3834212D1209A019305921F9A0EABCD
:1050100004921E9A009303920C9B0B9A0A9909988A
:1050200006940295FFF742FF17B0F0BD1F006646D9
:10503000D2E7F0B599B00C9320AB1B781E9D0D9371
:10504000229B1F9C08932B00239E09900A910B9290
:10505000234303D1269A10339A432692269B5B055D
:1050600004D52A00002322439A4227D0269A61239E
:10507000920600D541230027DBB20A3B0E93330092
:1050800028002100089AFEF7ABFF0E9BD2B2D3187E
:10509000DBB29C460F91092A02D83032D3B29C462B
:1050A000202108AA521861467B1CD155A64205D87A
:1050B00002D1089AAA4201D8202B14D1269A019332
:1050C0000692259A10AB0592249A00930492089AAE
:1050D0000C9B03920D9A0A99029209980B9AFFF77A
:1050E000E5FE19B0F0BD1F0005000F9CC7E70000EA
:1050F000F0B593B009900A910E920B93189A199BF0
:1051000010001900FFF7EFF9002811D1189819992C
:105110000122D14B5242FFF7E1F9002808D118983B
:1051200019990122CD4B5242FFF7C2F9002813D042
:105130001C9B0E9A04931B9B0A9903931A9B099834
:105140000293189B199C009301940B9B00F0B8F9F3
:105150000200100013B0F0BD002218981999002326
:10516000FFF7A6F9002800D165E1802212069446D7
:10517000189B0693199B6344079380231C9ADB00BA
:105180001A400F921C9A1A4201D106231A93069BC9
:10519000079A0424069E079F13431D1E00D1ACE00E
:1051A000AF4B5000400DC018FFF7AEF9AD4AAE4B03
:1051B000FFF737F9AD4AAE4BFFF714F9079BAD4A3D
:1051C0001B031B0B1A4304000D0030001100AA4BF7
:1051D0000022FFF702F9A94AA94BFFF722F90200C2
:1051E0000B0020002900FFF7FDF8FFF7A5F90500E7
:1051F000FFF78AF9A34AA44B06000F00FFF711F945
:105200000022A24BFFF7EEF8FFF796F9A04A040040
:10521000A04B30003900FFF704F9060020000F0012
:10522000FFF772F99C4A9D4BFFF7FBF802000B0059
:1052300030003900FFF7D1F802000B000C900D91FF
:10524000FFF7EFF80C9A0D9B06000F0010001900F5
:10525000FFF7C8F8002210901191914B30003900EF
:10526000FFF7C5F800228F4BFFF7BCF802000B00D8
:1052700030003900FFF7BBF800228B4BFFF7B2F884
:1052800002000B0030003900FFF7B1F80C9A0D9BBB
:105290000F0080210600C9050020FFF79EF80200DC
:1052A0000B0030003900FFF79DF802000B0010984A
:1052B0001199FFF79CF800226E4BFFF793F87B4B98
:1052C0000022E4182305FFF7ACF8069A079B0600B6
:1052D0000F00FFF703F9002808D030003900002242
:1052E000704BFFF784F806000F00013D2B00C62429
:1052F00063339C42A441644204341C9B1B0522D5A9
:1053000033003B4311D006980799694A694BFFF770
:10531000DDF8002800D193E0069807990022664B3B
:10532000FFF7C6F8002800D18AE01A9A0023AA42A3
:1053300001DD531B013B00241A93802325001C9A96
:10534000DB001A431C9200230C931B9B9C4201D24E
:105350001B1B0C9302231C9A1A400F921C9A1A4290
:1053600005D0634263410C9A5B421A400C92002DB7
:1053700007D00698079932003B00FFF738F80690EF
:1053800007911898199900220023FFF791F8002837
:1053900009D080200006844606990A0007996144D6
:1053A0000B00069207931C9A444B0A9913400493EE
:1053B0000C9B099803931A9B0293069A079B0092F1
:1053C00001930E9A0B9B00F07BF80200002C00D199
:1053D000BFE61C9B65209B0600D520380B9B0A99D5
:1053E000099F561CB84705230593002303930A33EE
:1053F0000293EB0F0193EB17ED185D40013C320077
:105400000B9B0A99099804940095FFF7CAFD0F9B1E
:105410000200002B00D19CE60E9BC41A0E9B1A19A9
:105420001B9BA34200D894E620200B9B0A99099D60
:10543000A8470134F2E7189B199C069307949CE651
:105440001A9B002B00D17EE70F9B5A1E93411A9A9C
:10545000D31A1A9377E7C046FFFFEF7FFFFFEFFFF6
:1054600001FCFFFFFB799F501344D33FB3C8608B0F
:10547000288AC63F0000F03F0000F83F61436F6399
:10548000A787D23F71A379094F930A400000E03FFC
:105490001655B5BBB16B0240EF39FAFE422EE63F1E
:1054A00000002C400000244000001840FF030000D2
:1054B0002D431CEBE2361A3F80842E41FFF7FFFF9D
:1054C000F0B59BB0209E219F09900A910B920C93FE
:1054D00032003B0030003900229CFFF704F800281E
:1054E00008D0249B0393239B029303230193B24B85
:1054F000009324E0012230003900B04B5242FEF705
:10550000D7FF002807D0249B0393239B02930423F7
:105510000193AB4BECE7012230003900A94B52421A
:10552000FEF7DCFF002814D00423249A1A420DD081
:10553000A54A2499019303912399009202910C9B0F
:105540000B9A0A990998FFF774FC1FE003239F4AFE
:10555000EFE70022300039009D4BFEF7BFFF002827
:1055600007D10022300039009A4BFEF7A1FF002836
:105570000ED0249B009601970493239B0B9A0393D0
:105580000A990C9B09980294FFF7B2FD1BB0F0BD7D
:105590000022002330003900FEF78AFF002817D0D0
:1055A0003B00320000200021FEF717FF0123060018
:1055B0000F000D93249B5B055DD52300203B0893D2
:1055C0003021230012AA092B04D8E41A089308E01A
:1055D0000D90EFE70898013B117001328342F2D140
:1055E000202439003000FEF7A7FF089A7A4BD2003A
:1055F0009B181A685B6807900E920F93FEF784FF62
:1056000002000B0030003900FEF7E7FE0E9A0F9BF8
:10561000FEF707FF10901191FEF7B2FF0500FEF7AD
:105620006FFF02000B0010981199FEF7D6FE0022C2
:105630006A4B10901191FEF751FF00281DD00135E3
:105640002800FEF75DFF02000B000E980F99FEF791
:1056500035FF002803D00025079B01330793089BE3
:10566000002B18D017260CABF618202C58D1089B0D
:1056700030211B196CE006249FE700221098119935
:10568000564BFEF715FF0028E9D1002D01D0EB079E
:10569000E5D50135E3E70798FEF736FF02000B007A
:1056A00030003900FEF799FE00224C4B06000F0037
:1056B000FEF7FEFE00280CD1002230003900474BD7
:1056C000FEF70CFF002804D10122079B013393430E
:1056D000079317250CABED18202C0ED007980A2144
:1056E000FEF718FC013430316619079831700A2131
:1056F000FEF710FC07900028EED10323249A1340F4
:10570000012B42D1239B002B3FD00D9B002B02D1BC
:105710000C331A4202D0239B013B2393302328E011
:10572000089B0A21013B28000893FEF71BFC01346B
:105730003031A719397028000A21FEF713FC092D12
:1057400095D9050091E718250CA8401901551400BA
:10575000202CBED0621C9C42F5D118202E230CA90F
:1057600009180B551400B4E718210CAA5218135548
:105770000134239AA24208D9202CF5D1249B01940C
:105780000393239B029312ABB2E6202CF6D00D9B21
:10579000002B06D02D2318210CAA521813550134C2
:1057A000ECE7249B5B0701D52B23F4E7249B1B0725
:1057B000E4D52023EFE7C0466F2E0110FFFFEFFF77
:1057C000732E0110FFFFEF7F662E01106B2E01106C
:1057D00065CDCD4165CDCDC1283D01100000E03F34
:1057E00010B5002801D000F076FC10BD10B50028DF
:1057F00002D00B684968984710BD0000F0B599B019
:105800000B921093B14AB24B1E9C0C900D911A60F2
:10581000002901D1AF4B0C93002677E2109B013396
:105820001093252807D03200751C0B9B0D990C9EF8
:10583000B0472E006AE200230122082525E02D282A
:1058400038D030281FD00200303A00270A25092A14
:1058500025D8109A1178501C0A00303A092A32D9FA
:105860000020109A0A9011782E293FD18021C9007A
:105870000B4310990132497808003038092852D872
:105880000A218C462CE013431091109908780131BD
:105890002B2812D0D3D8202811D0232811D00027AC
:1058A0002A28DDD180CC002F02DA02227F42134366
:1058B0001091D5E702200343E6E70420FBE72B43E2
:1058C000E2E71020F7E73A006A43303A8F18109069
:1058D000BFE760460A9A4243303A8A180A922A0081
:1058E0001178551C080030380928F2D91178501C5D
:1058F0006C292BD023D8682930D06A2936D01000E3
:105900000578421C1092672D53D8572D31D8452D5C
:105910004DD044D8320028000B9B0D990C9D771C6C
:10592000A8473E00F2E12A29E0D104CC0A92D243F2
:105930000A99D2171140109A0A910232D6E77429B7
:1059400001D07A29DBD1802252000BE051786C29FA
:10595000F9D1C02189000B43901CD1E75178682907
:1059600002D080221343CBE7C021F4E780229200CB
:10597000F8E7280058380F28CCD80DF02DF946004C
:10598000CBFFCBFFCBFFCBFFCBFFCBFFCBFFCBFFC7
:10599000CBFF4600DA004600C300B100C300462D2D
:1059A00000D19BE0472DB5D1802212011343202264
:1059B000BDE028006938C0B20F28ABD801224649A3
:1059C00082408C461140119161460A4218D10A2842
:1059D00000D1F1E007289DD121221343059308232C
:1059E00004930A9B3200039310230293119B0D9999
:1059F000019308CC0C9800930B9BFFF7D2FA7FE041
:105A00006F2D00D043E108220DE0582D0ED0022268
:105A1000622D08D00E3293430A22642D00D13FE15B
:105A200001E0782DF7D10C218B4339E1202213437B
:105A3000103AF8E7251DD9050CD5216805930A9B76
:105A400004970393CB0F0193CB17C91802925940C7
:105A5000009123E02168580601D5C9B2EEE7180687
:105A6000ECD509B2EAE700290DD0072108930A9B7B
:105A7000073406938C43002325000797049205936F
:105A800002930CCD38E1251DD8050ED505930A9B50
:105A900004970393029201912368009332000B9BB9
:105AA0000D990C98FFF77DFA2EE12168580608D56C
:105AB000C9B205930A9B04970393002302920193B2
:105AC000C6E71806F5D589B2F3E7C046FD570010C2
:105AD0000CEF0220314E00104190000020221343B1
